{
  "_format": "hh-sol-artifact-1",
  "contractName": "DigitalDash",
  "sourceName": "contracts/DigitalDash.sol",
  "abi": [
    {
      "inputs": [],
      "stateMutability": "nonpayable",
      "type": "constructor"
    },
    {
      "anonymous": false,
      "inputs": [
        {
          "indexed": true,
          "internalType": "address",
          "name": "owner",
          "type": "address"
        },
        {
          "indexed": true,
          "internalType": "address",
          "name": "approved",
          "type": "address"
        },
        {
          "indexed": true,
          "internalType": "uint256",
          "name": "tokenId",
          "type": "uint256"
        }
      ],
      "name": "Approval",
      "type": "event"
    },
    {
      "anonymous": false,
      "inputs": [
        {
          "indexed": true,
          "internalType": "address",
          "name": "owner",
          "type": "address"
        },
        {
          "indexed": true,
          "internalType": "address",
          "name": "operator",
          "type": "address"
        },
        {
          "indexed": false,
          "internalType": "bool",
          "name": "approved",
          "type": "bool"
        }
      ],
      "name": "ApprovalForAll",
      "type": "event"
    },
    {
      "anonymous": false,
      "inputs": [
        {
          "indexed": true,
          "internalType": "address",
          "name": "previousOwner",
          "type": "address"
        },
        {
          "indexed": true,
          "internalType": "address",
          "name": "newOwner",
          "type": "address"
        }
      ],
      "name": "OwnershipTransferred",
      "type": "event"
    },
    {
      "anonymous": false,
      "inputs": [
        {
          "indexed": true,
          "internalType": "address",
          "name": "from",
          "type": "address"
        },
        {
          "indexed": true,
          "internalType": "address",
          "name": "to",
          "type": "address"
        },
        {
          "indexed": true,
          "internalType": "uint256",
          "name": "tokenId",
          "type": "uint256"
        }
      ],
      "name": "Transfer",
      "type": "event"
    },
    {
      "inputs": [],
      "name": "COMMUNITY_SALE_PRICE",
      "outputs": [
        {
          "internalType": "uint256",
          "name": "",
          "type": "uint256"
        }
      ],
      "stateMutability": "view",
      "type": "function"
    },
    {
      "inputs": [],
      "name": "MAX_DASHES_PER_WALLET",
      "outputs": [
        {
          "internalType": "uint256",
          "name": "",
          "type": "uint256"
        }
      ],
      "stateMutability": "view",
      "type": "function"
    },
    {
      "inputs": [],
      "name": "PUBLIC_SALE_PRICE",
      "outputs": [
        {
          "internalType": "uint256",
          "name": "",
          "type": "uint256"
        }
      ],
      "stateMutability": "view",
      "type": "function"
    },
    {
      "inputs": [
        {
          "internalType": "address",
          "name": "to",
          "type": "address"
        },
        {
          "internalType": "uint256",
          "name": "tokenId",
          "type": "uint256"
        }
      ],
      "name": "approve",
      "outputs": [],
      "stateMutability": "nonpayable",
      "type": "function"
    },
    {
      "inputs": [
        {
          "internalType": "address",
          "name": "owner",
          "type": "address"
        }
      ],
      "name": "balanceOf",
      "outputs": [
        {
          "internalType": "uint256",
          "name": "",
          "type": "uint256"
        }
      ],
      "stateMutability": "view",
      "type": "function"
    },
    {
      "inputs": [],
      "name": "claimListMerkleRoot",
      "outputs": [
        {
          "internalType": "bytes32",
          "name": "",
          "type": "bytes32"
        }
      ],
      "stateMutability": "view",
      "type": "function"
    },
    {
      "inputs": [
        {
          "internalType": "address",
          "name": "",
          "type": "address"
        }
      ],
      "name": "claimed",
      "outputs": [
        {
          "internalType": "bool",
          "name": "",
          "type": "bool"
        }
      ],
      "stateMutability": "view",
      "type": "function"
    },
    {
      "inputs": [
        {
          "internalType": "address",
          "name": "",
          "type": "address"
        }
      ],
      "name": "communityMintCounts",
      "outputs": [
        {
          "internalType": "uint256",
          "name": "",
          "type": "uint256"
        }
      ],
      "stateMutability": "view",
      "type": "function"
    },
    {
      "inputs": [],
      "name": "communitySaleMerkleRoot",
      "outputs": [
        {
          "internalType": "bytes32",
          "name": "",
          "type": "bytes32"
        }
      ],
      "stateMutability": "view",
      "type": "function"
    },
    {
      "inputs": [],
      "name": "currentTotal",
      "outputs": [
        {
          "internalType": "uint256",
          "name": "",
          "type": "uint256"
        }
      ],
      "stateMutability": "view",
      "type": "function"
    },
    {
      "inputs": [
        {
          "internalType": "uint256",
          "name": "tokenId",
          "type": "uint256"
        }
      ],
      "name": "getApproved",
      "outputs": [
        {
          "internalType": "address",
          "name": "",
          "type": "address"
        }
      ],
      "stateMutability": "view",
      "type": "function"
    },
    {
      "inputs": [
        {
          "internalType": "address",
          "name": "owner",
          "type": "address"
        },
        {
          "internalType": "address",
          "name": "operator",
          "type": "address"
        }
      ],
      "name": "isApprovedForAll",
      "outputs": [
        {
          "internalType": "bool",
          "name": "",
          "type": "bool"
        }
      ],
      "stateMutability": "view",
      "type": "function"
    },
    {
      "inputs": [],
      "name": "isCommunitySaleActive",
      "outputs": [
        {
          "internalType": "bool",
          "name": "",
          "type": "bool"
        }
      ],
      "stateMutability": "view",
      "type": "function"
    },
    {
      "inputs": [],
      "name": "isPublicSaleActive",
      "outputs": [
        {
          "internalType": "bool",
          "name": "",
          "type": "bool"
        }
      ],
      "stateMutability": "view",
      "type": "function"
    },
    {
      "inputs": [],
      "name": "maxCommunitySaleDashes",
      "outputs": [
        {
          "internalType": "uint256",
          "name": "",
          "type": "uint256"
        }
      ],
      "stateMutability": "view",
      "type": "function"
    },
    {
      "inputs": [],
      "name": "maxDashes",
      "outputs": [
        {
          "internalType": "uint256",
          "name": "",
          "type": "uint256"
        }
      ],
      "stateMutability": "view",
      "type": "function"
    },
    {
      "inputs": [],
      "name": "maxGiftedDashes",
      "outputs": [
        {
          "internalType": "uint256",
          "name": "",
          "type": "uint256"
        }
      ],
      "stateMutability": "view",
      "type": "function"
    },
    {
      "inputs": [
        {
          "internalType": "uint256",
          "name": "numberOfTokens",
          "type": "uint256"
        }
      ],
      "name": "mint",
      "outputs": [],
      "stateMutability": "payable",
      "type": "function"
    },
    {
      "inputs": [
        {
          "internalType": "uint8",
          "name": "numberOfTokens",
          "type": "uint8"
        },
        {
          "internalType": "bytes32[]",
          "name": "merkleProof",
          "type": "bytes32[]"
        }
      ],
      "name": "mintCommunitySale",
      "outputs": [],
      "stateMutability": "payable",
      "type": "function"
    },
    {
      "inputs": [],
      "name": "name",
      "outputs": [
        {
          "internalType": "string",
          "name": "",
          "type": "string"
        }
      ],
      "stateMutability": "view",
      "type": "function"
    },
    {
      "inputs": [],
      "name": "owner",
      "outputs": [
        {
          "internalType": "address",
          "name": "",
          "type": "address"
        }
      ],
      "stateMutability": "view",
      "type": "function"
    },
    {
      "inputs": [
        {
          "internalType": "uint256",
          "name": "tokenId",
          "type": "uint256"
        }
      ],
      "name": "ownerOf",
      "outputs": [
        {
          "internalType": "address",
          "name": "",
          "type": "address"
        }
      ],
      "stateMutability": "view",
      "type": "function"
    },
    {
      "inputs": [],
      "name": "renounceOwnership",
      "outputs": [],
      "stateMutability": "nonpayable",
      "type": "function"
    },
    {
      "inputs": [
        {
          "internalType": "uint256",
          "name": "tokenId",
          "type": "uint256"
        },
        {
          "internalType": "uint256",
          "name": "salePrice",
          "type": "uint256"
        }
      ],
      "name": "royaltyInfo",
      "outputs": [
        {
          "internalType": "address",
          "name": "receiver",
          "type": "address"
        },
        {
          "internalType": "uint256",
          "name": "royaltyAmount",
          "type": "uint256"
        }
      ],
      "stateMutability": "view",
      "type": "function"
    },
    {
      "inputs": [
        {
          "internalType": "address",
          "name": "from",
          "type": "address"
        },
        {
          "internalType": "address",
          "name": "to",
          "type": "address"
        },
        {
          "internalType": "uint256",
          "name": "tokenId",
          "type": "uint256"
        }
      ],
      "name": "safeTransferFrom",
      "outputs": [],
      "stateMutability": "nonpayable",
      "type": "function"
    },
    {
      "inputs": [
        {
          "internalType": "address",
          "name": "from",
          "type": "address"
        },
        {
          "internalType": "address",
          "name": "to",
          "type": "address"
        },
        {
          "internalType": "uint256",
          "name": "tokenId",
          "type": "uint256"
        },
        {
          "internalType": "bytes",
          "name": "_data",
          "type": "bytes"
        }
      ],
      "name": "safeTransferFrom",
      "outputs": [],
      "stateMutability": "nonpayable",
      "type": "function"
    },
    {
      "inputs": [
        {
          "internalType": "address",
          "name": "operator",
          "type": "address"
        },
        {
          "internalType": "bool",
          "name": "approved",
          "type": "bool"
        }
      ],
      "name": "setApprovalForAll",
      "outputs": [],
      "stateMutability": "nonpayable",
      "type": "function"
    },
    {
      "inputs": [
        {
          "internalType": "string",
          "name": "_baseURI",
          "type": "string"
        }
      ],
      "name": "setBaseURI",
      "outputs": [],
      "stateMutability": "nonpayable",
      "type": "function"
    },
    {
      "inputs": [
        {
          "internalType": "bytes32",
          "name": "merkleRoot",
          "type": "bytes32"
        }
      ],
      "name": "setCommunityListMerkleRoot",
      "outputs": [],
      "stateMutability": "nonpayable",
      "type": "function"
    },
    {
      "inputs": [
        {
          "internalType": "bool",
          "name": "_isCommunitySaleActive",
          "type": "bool"
        }
      ],
      "name": "setIsCommunitySaleActive",
      "outputs": [],
      "stateMutability": "nonpayable",
      "type": "function"
    },
    {
      "inputs": [
        {
          "internalType": "bool",
          "name": "_isPublicSaleActive",
          "type": "bool"
        }
      ],
      "name": "setIsPublicSaleActive",
      "outputs": [],
      "stateMutability": "nonpayable",
      "type": "function"
    },
    {
      "inputs": [
        {
          "internalType": "bytes4",
          "name": "interfaceId",
          "type": "bytes4"
        }
      ],
      "name": "supportsInterface",
      "outputs": [
        {
          "internalType": "bool",
          "name": "",
          "type": "bool"
        }
      ],
      "stateMutability": "view",
      "type": "function"
    },
    {
      "inputs": [],
      "name": "symbol",
      "outputs": [
        {
          "internalType": "string",
          "name": "",
          "type": "string"
        }
      ],
      "stateMutability": "view",
      "type": "function"
    },
    {
      "inputs": [
        {
          "internalType": "uint256",
          "name": "tokenId",
          "type": "uint256"
        }
      ],
      "name": "tokenURI",
      "outputs": [
        {
          "internalType": "string",
          "name": "",
          "type": "string"
        }
      ],
      "stateMutability": "view",
      "type": "function"
    },
    {
      "inputs": [
        {
          "internalType": "address",
          "name": "from",
          "type": "address"
        },
        {
          "internalType": "address",
          "name": "to",
          "type": "address"
        },
        {
          "internalType": "uint256",
          "name": "tokenId",
          "type": "uint256"
        }
      ],
      "name": "transferFrom",
      "outputs": [],
      "stateMutability": "nonpayable",
      "type": "function"
    },
    {
      "inputs": [
        {
          "internalType": "address",
          "name": "newOwner",
          "type": "address"
        }
      ],
      "name": "transferOwnership",
      "outputs": [],
      "stateMutability": "nonpayable",
      "type": "function"
    },
    {
      "inputs": [],
      "name": "verificationHash",
      "outputs": [
        {
          "internalType": "string",
          "name": "",
          "type": "string"
        }
      ],
      "stateMutability": "view",
      "type": "function"
    },
    {
      "inputs": [],
      "name": "withdraw",
      "outputs": [],
      "stateMutability": "nonpayable",
      "type": "function"
    },
    {
      "inputs": [
        {
          "internalType": "contract IERC20",
          "name": "token",
          "type": "address"
        }
      ],
      "name": "withdrawTokens",
      "outputs": [],
      "stateMutability": "nonpayable",
      "type": "function"
    },
    {
      "stateMutability": "payable",
      "type": "receive"
    }
  ],
  "bytecode": "0x60806040526001600b60146101000a81548160ff02191690831515021790555060fa600c556103e9600e553480156200003757600080fd5b506040518060400160405280600781526020017f4a6f6520446f65000000000000000000000000000000000000000000000000008152506040518060400160405280600381526020017f446f6500000000000000000000000000000000000000000000000000000000008152508160009080519060200190620000bc929190620001d4565b508060019080519060200190620000d5929190620001d4565b505050620000f8620000ec6200010660201b60201c565b6200010e60201b60201c565b6001600781905550620002e9565b600033905090565b6000600660009054906101000a900473ffffffffffffffffffffffffffffffffffffffff16905081600660006101000a81548173ffffffffffffffffffffffffffffffffffffffff021916908373ffffffffffffffffffffffffffffffffffffffff1602179055508173ffffffffffffffffffffffffffffffffffffffff168173ffffffffffffffffffffffffffffffffffffffff167f8be0079c531659141344cd1fd0a4f28419497f9722a3daafe3b4186f6b6457e060405160405180910390a35050565b828054620001e29062000284565b90600052602060002090601f01602090048101928262000206576000855562000252565b82601f106200022157805160ff191683800117855562000252565b8280016001018555821562000252579182015b828111156200025157825182559160200191906001019062000234565b5b50905062000261919062000265565b5090565b5b808211156200028057600081600090555060010162000266565b5090565b600060028204905060018216806200029d57607f821691505b60208210811415620002b457620002b3620002ba565b5b50919050565b7f4e487b7100000000000000000000000000000000000000000000000000000000600052602260045260246000fd5b6148d280620002f96000396000f3fe6080604052600436106102345760003560e01c80636ecc4da81161012e578063ac69db7f116100ab578063c884ef831161006f578063c884ef831461081d578063e10c605f1461085a578063e985e9c514610883578063eb4883ab146108c0578063f2fde38b146108eb5761023b565b8063ac69db7f14610736578063b88d4fde14610761578063bec951071461078a578063c0c36a37146107b5578063c87b56dd146107e05761023b565b80638e4f8692116100f25780638e4f86921461067f57806395d89b411461069b5780639eb00974146106c6578063a0712d68146106f1578063a22cb4651461070d5761023b565b80636ecc4da8146105aa57806370a08231146105d5578063715018a61461061257806380303eb9146106295780638da5cb5b146106545761023b565b80632a55205a116101bc57806342842e0e1161018057806342842e0e146104c757806349df728c146104f0578063532c0dbc1461051957806355f804b3146105445780636352211e1461056d5761023b565b80632a55205a146103df578063326f9ad31461041d57806337cacb11146104485780633ccfd60b146104855780633da8bfc91461049c5761023b565b8063095ea7b311610203578063095ea7b3146103105780630d3cf1f2146103395780631e84c4131461036257806323b872dd1461038d57806328cad13d146103b65761023b565b806301ffc9a71461024057806306fdde031461027d57806307e89ec0146102a8578063081812fc146102d35761023b565b3661023b57005b600080fd5b34801561024c57600080fd5b5061026760048036038101906102629190613294565b610914565b60405161027491906139eb565b60405180910390f35b34801561028957600080fd5b5061029261098e565b60405161029f9190613a21565b60405180910390f35b3480156102b457600080fd5b506102bd610a20565b6040516102ca9190613d43565b60405180910390f35b3480156102df57600080fd5b506102fa60048036038101906102f59190613379565b610a2b565b604051610307919061395b565b60405180910390f35b34801561031c57600080fd5b50610337600480360381019061033291906131dd565b610ab0565b005b34801561034557600080fd5b50610360600480360381019061035b9190613219565b610bc8565b005b34801561036e57600080fd5b50610377610c61565b60405161038491906139eb565b60405180910390f35b34801561039957600080fd5b506103b460048036038101906103af91906130d7565b610c74565b005b3480156103c257600080fd5b506103dd60048036038101906103d89190613219565b610cd4565b005b3480156103eb57600080fd5b50610406600480360381019061040191906133cb565b610d6d565b6040516104149291906139c2565b60405180910390f35b34801561042957600080fd5b50610432610dd9565b60405161043f9190613a06565b60405180910390f35b34801561045457600080fd5b5061046f600480360381019061046a9190613072565b610ddf565b60405161047c9190613d43565b60405180910390f35b34801561049157600080fd5b5061049a610df7565b005b3480156104a857600080fd5b506104b1610ec2565b6040516104be9190613d43565b60405180910390f35b3480156104d357600080fd5b506104ee60048036038101906104e991906130d7565b610ed3565b005b3480156104fc57600080fd5b50610517600480360381019061051291906132e6565b610ef3565b005b34801561052557600080fd5b5061052e61108e565b60405161053b9190613d43565b60405180910390f35b34801561055057600080fd5b5061056b60048036038101906105669190613338565b611094565b005b34801561057957600080fd5b50610594600480360381019061058f9190613379565b61112a565b6040516105a1919061395b565b60405180910390f35b3480156105b657600080fd5b506105bf6111dc565b6040516105cc9190613d43565b60405180910390f35b3480156105e157600080fd5b506105fc60048036038101906105f79190613072565b6111e2565b6040516106099190613d43565b60405180910390f35b34801561061e57600080fd5b5061062761129a565b005b34801561063557600080fd5b5061063e611322565b60405161064b9190613d43565b60405180910390f35b34801561066057600080fd5b50610669611328565b604051610676919061395b565b60405180910390f35b61069960048036038101906106949190613407565b611352565b005b3480156106a757600080fd5b506106b0611701565b6040516106bd9190613a21565b60405180910390f35b3480156106d257600080fd5b506106db611793565b6040516106e89190613a06565b60405180910390f35b61070b60048036038101906107069190613379565b611799565b005b34801561071957600080fd5b50610734600480360381019061072f91906131a1565b611998565b005b34801561074257600080fd5b5061074b6119ae565b6040516107589190613d43565b60405180910390f35b34801561076d57600080fd5b5061078860048036038101906107839190613126565b6119b3565b005b34801561079657600080fd5b5061079f611a15565b6040516107ac9190613d43565b60405180910390f35b3480156107c157600080fd5b506107ca611a20565b6040516107d79190613a21565b60405180910390f35b3480156107ec57600080fd5b5061080760048036038101906108029190613379565b611aae565b6040516108149190613a21565b60405180910390f35b34801561082957600080fd5b50610844600480360381019061083f9190613072565b611b2a565b60405161085191906139eb565b60405180910390f35b34801561086657600080fd5b50610881600480360381019061087c919061326b565b611b4a565b005b34801561088f57600080fd5b506108aa60048036038101906108a5919061309b565b611bd0565b6040516108b791906139eb565b60405180910390f35b3480156108cc57600080fd5b506108d5611cea565b6040516108e291906139eb565b60405180910390f35b3480156108f757600080fd5b50610912600480360381019061090d9190613072565b611cfd565b005b60007f2a55205a000000000000000000000000000000000000000000000000000000007bffffffffffffffffffffffffffffffffffffffffffffffffffffffff1916827bffffffffffffffffffffffffffffffffffffffffffffffffffffffff19161480610987575061098682611df5565b5b9050919050565b60606000805461099d90614043565b80601f01602080910402602001604051908101604052809291908181526020018280546109c990614043565b8015610a165780601f106109eb57610100808354040283529160200191610a16565b820191906000526020600020905b8154815290600101906020018083116109f957829003601f168201915b5050505050905090565b66f8b0a10e47000081565b6000610a3682611ed7565b610a75576040517f08c379a0000000000000000000000000000000000000000000000000000000008152600401610a6c90613c03565b60405180910390fd5b6004600083815260200190815260200160002060009054906101000a900473ffffffffffffffffffffffffffffffffffffffff169050919050565b6000610abb8261112a565b90508073ffffffffffffffffffffffffffffffffffffffff168373ffffffffffffffffffffffffffffffffffffffff161415610b2c576040517f08c379a0000000000000000000000000000000000000000000000000000000008152600401610b2390613c63565b60405180910390fd5b8073ffffffffffffffffffffffffffffffffffffffff16610b4b611f43565b73ffffffffffffffffffffffffffffffffffffffff161480610b7a5750610b7981610b74611f43565b611bd0565b5b610bb9576040517f08c379a0000000000000000000000000000000000000000000000000000000008152600401610bb090613b43565b60405180910390fd5b610bc38383611f4b565b505050565b610bd0611f43565b73ffffffffffffffffffffffffffffffffffffffff16610bee611328565b73ffffffffffffffffffffffffffffffffffffffff1614610c44576040517f08c379a0000000000000000000000000000000000000000000000000000000008152600401610c3b90613c23565b60405180910390fd5b80600b60166101000a81548160ff02191690831515021790555050565b600b60159054906101000a900460ff1681565b610c85610c7f611f43565b82612004565b610cc4576040517f08c379a0000000000000000000000000000000000000000000000000000000008152600401610cbb90613ca3565b60405180910390fd5b610ccf8383836120e2565b505050565b610cdc611f43565b73ffffffffffffffffffffffffffffffffffffffff16610cfa611328565b73ffffffffffffffffffffffffffffffffffffffff1614610d50576040517f08c379a0000000000000000000000000000000000000000000000000000000008152600401610d4790613c23565b60405180910390fd5b80600b60156101000a81548160ff02191690831515021790555050565b600080610d7984611ed7565b610db8576040517f08c379a0000000000000000000000000000000000000000000000000000000008152600401610daf90613b63565b60405180910390fd5b30610dce610dc7856005612349565b606461235f565b915091509250929050565b60115481565b60126020528060005260406000206000915090505481565b610dff611f43565b73ffffffffffffffffffffffffffffffffffffffff16610e1d611328565b73ffffffffffffffffffffffffffffffffffffffff1614610e73576040517f08c379a0000000000000000000000000000000000000000000000000000000008152600401610e6a90613c23565b60405180910390fd5b60004790503373ffffffffffffffffffffffffffffffffffffffff166108fc829081150290604051600060405180830381858888f19350505050158015610ebe573d6000803e3d6000fd5b5050565b6000610ece6008612375565b905090565b610eee838383604051806020016040528060008152506119b3565b505050565b610efb611f43565b73ffffffffffffffffffffffffffffffffffffffff16610f19611328565b73ffffffffffffffffffffffffffffffffffffffff1614610f6f576040517f08c379a0000000000000000000000000000000000000000000000000000000008152600401610f6690613c23565b60405180910390fd5b60008173ffffffffffffffffffffffffffffffffffffffff166370a08231306040518263ffffffff1660e01b8152600401610faa919061395b565b60206040518083038186803b158015610fc257600080fd5b505afa158015610fd6573d6000803e3d6000fd5b505050506040513d601f19601f82011682018060405250810190610ffa91906133a2565b90508173ffffffffffffffffffffffffffffffffffffffff1663a9059cbb33836040518363ffffffff1660e01b81526004016110379291906139c2565b602060405180830381600087803b15801561105157600080fd5b505af1158015611065573d6000803e3d6000fd5b505050506040513d601f19601f820116820180604052508101906110899190613242565b505050565b600e5481565b61109c611f43565b73ffffffffffffffffffffffffffffffffffffffff166110ba611328565b73ffffffffffffffffffffffffffffffffffffffff1614611110576040517f08c379a000000000000000000000000000000000000000000000000000000000815260040161110790613c23565b60405180910390fd5b8060099080519060200190611126929190612dce565b5050565b6000806002600084815260200190815260200160002060009054906101000a900473ffffffffffffffffffffffffffffffffffffffff169050600073ffffffffffffffffffffffffffffffffffffffff168173ffffffffffffffffffffffffffffffffffffffff1614156111d3576040517f08c379a00000000000000000000000000000000000000000000000000000000081526004016111ca90613ba3565b60405180910390fd5b80915050919050565b600c5481565b60008073ffffffffffffffffffffffffffffffffffffffff168273ffffffffffffffffffffffffffffffffffffffff161415611253576040517f08c379a000000000000000000000000000000000000000000000000000000000815260040161124a90613b83565b60405180910390fd5b600360008373ffffffffffffffffffffffffffffffffffffffff1673ffffffffffffffffffffffffffffffffffffffff168152602001908152602001600020549050919050565b6112a2611f43565b73ffffffffffffffffffffffffffffffffffffffff166112c0611328565b73ffffffffffffffffffffffffffffffffffffffff1614611316576040517f08c379a000000000000000000000000000000000000000000000000000000000815260040161130d90613c23565b60405180910390fd5b6113206000612383565b565b600f5481565b6000600660009054906101000a900473ffffffffffffffffffffffffffffffffffffffff16905090565b60026007541415611398576040517f08c379a000000000000000000000000000000000000000000000000000000000815260040161138f90613d03565b60405180910390fd5b6002600781905550600b60169054906101000a900460ff166113ef576040517f08c379a00000000000000000000000000000000000000000000000000000000081526004016113e690613cc3565b60405180910390fd5b8260ff16601054600f54600e546114069190613f1e565b6114109190613e3d565b8161141b6008612375565b6114259190613e3d565b1115611466576040517f08c379a000000000000000000000000000000000000000000000000000000000815260040161145d90613c83565b60405180910390fd5b66b1a2bc2ec500008460ff1634818361147f9190613ec4565b10156114c0576040517f08c379a00000000000000000000000000000000000000000000000000000000081526004016114b790613ce3565b60405180910390fd5b8484600d54611537838380806020026020016040519081016040528093929190818152602001838360200280828437600081840152601f19601f82011690508083019250505050505050823360405160200161151c919061391c565b60405160208183030381529060405280519060200120612449565b611576576040517f08c379a000000000000000000000000000000000000000000000000000000000815260040161156d90613b23565b60405180910390fd5b6000601260003373ffffffffffffffffffffffffffffffffffffffff1673ffffffffffffffffffffffffffffffffffffffff168152602001908152602001600020549050600a8a60ff16826115cb9190613e3d565b111561160c576040517f08c379a000000000000000000000000000000000000000000000000000000000815260040161160390613be3565b60405180910390fd5b600c548a60ff1661161d6008612375565b6116279190613e3d565b1115611668576040517f08c379a000000000000000000000000000000000000000000000000000000000815260040161165f90613c83565b60405180910390fd5b8960ff16816116779190613e3d565b601260003373ffffffffffffffffffffffffffffffffffffffff1673ffffffffffffffffffffffffffffffffffffffff1681526020019081526020016000208190555060005b8a60ff168110156116ec576116d9336116d4612460565b61247b565b80806116e4906140a6565b9150506116bd565b50505050505050506001600781905550505050565b60606001805461171090614043565b80601f016020809104026020016040519081016040528092919081815260200182805461173c90614043565b80156117895780601f1061175e57610100808354040283529160200191611789565b820191906000526020600020905b81548152906001019060200180831161176c57829003601f168201915b5050505050905090565b600d5481565b600260075414156117df576040517f08c379a00000000000000000000000000000000000000000000000000000000081526004016117d690613d03565b60405180910390fd5b600260078190555066f8b0a10e470000813481836117fd9190613ec4565b101561183e576040517f08c379a000000000000000000000000000000000000000000000000000000000815260040161183590613ce3565b60405180910390fd5b600b60159054906101000a900460ff1661188d576040517f08c379a000000000000000000000000000000000000000000000000000000000815260040161188490613d23565b60405180910390fd5b82601054600f54600e546118a19190613f1e565b6118ab9190613e3d565b816118b66008612375565b6118c09190613e3d565b1115611901576040517f08c379a00000000000000000000000000000000000000000000000000000000081526004016118f890613c83565b60405180910390fd5b83600a8161190e336111e2565b6119189190613e3d565b1115611959576040517f08c379a000000000000000000000000000000000000000000000000000000000815260040161195090613c43565b60405180910390fd5b60005b858110156119885761197533611970612460565b61247b565b8080611980906140a6565b91505061195c565b5050505050600160078190555050565b6119aa6119a3611f43565b8383612499565b5050565b600a81565b6119c46119be611f43565b83612004565b611a03576040517f08c379a00000000000000000000000000000000000000000000000000000000081526004016119fa90613ca3565b60405180910390fd5b611a0f84848484612606565b50505050565b66b1a2bc2ec5000081565b600a8054611a2d90614043565b80601f0160208091040260200160405190810160405280929190818152602001828054611a5990614043565b8015611aa65780601f10611a7b57610100808354040283529160200191611aa6565b820191906000526020600020905b815481529060010190602001808311611a8957829003601f168201915b505050505081565b6060611ab982611ed7565b611af8576040517f08c379a0000000000000000000000000000000000000000000000000000000008152600401611aef90613b63565b60405180910390fd5b6009611b0383612662565b604051602001611b14929190613937565b6040516020818303038152906040529050919050565b60136020528060005260406000206000915054906101000a900460ff1681565b611b52611f43565b73ffffffffffffffffffffffffffffffffffffffff16611b70611328565b73ffffffffffffffffffffffffffffffffffffffff1614611bc6576040517f08c379a0000000000000000000000000000000000000000000000000000000008152600401611bbd90613c23565b60405180910390fd5b80600d8190555050565b600080600b60009054906101000a900473ffffffffffffffffffffffffffffffffffffffff169050600b60149054906101000a900460ff168015611cc757508273ffffffffffffffffffffffffffffffffffffffff168173ffffffffffffffffffffffffffffffffffffffff1663c4552791866040518263ffffffff1660e01b8152600401611c5f919061395b565b60206040518083038186803b158015611c7757600080fd5b505afa158015611c8b573d6000803e3d6000fd5b505050506040513d601f19601f82011682018060405250810190611caf919061330f565b73ffffffffffffffffffffffffffffffffffffffff16145b15611cd6576001915050611ce4565b611ce0848461280f565b9150505b92915050565b600b60169054906101000a900460ff1681565b611d05611f43565b73ffffffffffffffffffffffffffffffffffffffff16611d23611328565b73ffffffffffffffffffffffffffffffffffffffff1614611d79576040517f08c379a0000000000000000000000000000000000000000000000000000000008152600401611d7090613c23565b60405180910390fd5b600073ffffffffffffffffffffffffffffffffffffffff168173ffffffffffffffffffffffffffffffffffffffff161415611de9576040517f08c379a0000000000000000000000000000000000000000000000000000000008152600401611de090613a63565b60405180910390fd5b611df281612383565b50565b60007f80ac58cd000000000000000000000000000000000000000000000000000000007bffffffffffffffffffffffffffffffffffffffffffffffffffffffff1916827bffffffffffffffffffffffffffffffffffffffffffffffffffffffff19161480611ec057507f5b5e139f000000000000000000000000000000000000000000000000000000007bffffffffffffffffffffffffffffffffffffffffffffffffffffffff1916827bffffffffffffffffffffffffffffffffffffffffffffffffffffffff1916145b80611ed05750611ecf826128a3565b5b9050919050565b60008073ffffffffffffffffffffffffffffffffffffffff166002600084815260200190815260200160002060009054906101000a900473ffffffffffffffffffffffffffffffffffffffff1673ffffffffffffffffffffffffffffffffffffffff1614159050919050565b600033905090565b816004600083815260200190815260200160002060006101000a81548173ffffffffffffffffffffffffffffffffffffffff021916908373ffffffffffffffffffffffffffffffffffffffff160217905550808273ffffffffffffffffffffffffffffffffffffffff16611fbe8361112a565b73ffffffffffffffffffffffffffffffffffffffff167f8c5be1e5ebec7d5bd14f71427d1e84f3dd0314c0f7b2291e5b200ac8c7c3b92560405160405180910390a45050565b600061200f82611ed7565b61204e576040517f08c379a000000000000000000000000000000000000000000000000000000000815260040161204590613b03565b60405180910390fd5b60006120598361112a565b90508073ffffffffffffffffffffffffffffffffffffffff168473ffffffffffffffffffffffffffffffffffffffff1614806120c857508373ffffffffffffffffffffffffffffffffffffffff166120b084610a2b565b73ffffffffffffffffffffffffffffffffffffffff16145b806120d957506120d88185611bd0565b5b91505092915050565b8273ffffffffffffffffffffffffffffffffffffffff166121028261112a565b73ffffffffffffffffffffffffffffffffffffffff1614612158576040517f08c379a000000000000000000000000000000000000000000000000000000000815260040161214f90613a83565b60405180910390fd5b600073ffffffffffffffffffffffffffffffffffffffff168273ffffffffffffffffffffffffffffffffffffffff1614156121c8576040517f08c379a00000000000000000000000000000000000000000000000000000000081526004016121bf90613ac3565b60405180910390fd5b6121d383838361290d565b6121de600082611f4b565b6001600360008573ffffffffffffffffffffffffffffffffffffffff1673ffffffffffffffffffffffffffffffffffffffff168152602001908152602001600020600082825461222e9190613f1e565b925050819055506001600360008473ffffffffffffffffffffffffffffffffffffffff1673ffffffffffffffffffffffffffffffffffffffff16815260200190815260200160002060008282546122859190613e3d565b92505081905550816002600083815260200190815260200160002060006101000a81548173ffffffffffffffffffffffffffffffffffffffff021916908373ffffffffffffffffffffffffffffffffffffffff160217905550808273ffffffffffffffffffffffffffffffffffffffff168473ffffffffffffffffffffffffffffffffffffffff167fddf252ad1be2c89b69c2b068fc378daa952ba7f163c4a11628f55a4df523b3ef60405160405180910390a4612344838383612912565b505050565b600081836123579190613ec4565b905092915050565b6000818361236d9190613e93565b905092915050565b600081600001549050919050565b6000600660009054906101000a900473ffffffffffffffffffffffffffffffffffffffff16905081600660006101000a81548173ffffffffffffffffffffffffffffffffffffffff021916908373ffffffffffffffffffffffffffffffffffffffff1602179055508173ffffffffffffffffffffffffffffffffffffffff168173ffffffffffffffffffffffffffffffffffffffff167f8be0079c531659141344cd1fd0a4f28419497f9722a3daafe3b4186f6b6457e060405160405180910390a35050565b6000826124568584612917565b1490509392505050565b600061246c60086129b2565b6124766008612375565b905090565b6124958282604051806020016040528060008152506129c8565b5050565b8173ffffffffffffffffffffffffffffffffffffffff168373ffffffffffffffffffffffffffffffffffffffff161415612508576040517f08c379a00000000000000000000000000000000000000000000000000000000081526004016124ff90613ae3565b60405180910390fd5b80600560008573ffffffffffffffffffffffffffffffffffffffff1673ffffffffffffffffffffffffffffffffffffffff16815260200190815260200160002060008473ffffffffffffffffffffffffffffffffffffffff1673ffffffffffffffffffffffffffffffffffffffff16815260200190815260200160002060006101000a81548160ff0219169083151502179055508173ffffffffffffffffffffffffffffffffffffffff168373ffffffffffffffffffffffffffffffffffffffff167f17307eab39ab6107e8899845ad3d59bd9653f200f220920489ca2b5937696c31836040516125f991906139eb565b60405180910390a3505050565b6126118484846120e2565b61261d84848484612a23565b61265c576040517f08c379a000000000000000000000000000000000000000000000000000000000815260040161265390613a43565b60405180910390fd5b50505050565b606060008214156126aa576040518060400160405280600181526020017f3000000000000000000000000000000000000000000000000000000000000000815250905061280a565b600082905060005b600082146126dc5780806126c5906140a6565b915050600a826126d59190613e93565b91506126b2565b60008167ffffffffffffffff81111561271e577f4e487b7100000000000000000000000000000000000000000000000000000000600052604160045260246000fd5b6040519080825280601f01601f1916602001820160405280156127505781602001600182028036833780820191505090505b5090505b60008514612803576001826127699190613f1e565b9150600a856127789190614113565b60306127849190613e3d565b60f81b8183815181106127c0577f4e487b7100000000000000000000000000000000000000000000000000000000600052603260045260246000fd5b60200101907effffffffffffffffffffffffffffffffffffffffffffffffffffffffffffff1916908160001a905350600a856127fc9190613e93565b9450612754565b8093505050505b919050565b6000600560008473ffffffffffffffffffffffffffffffffffffffff1673ffffffffffffffffffffffffffffffffffffffff16815260200190815260200160002060008373ffffffffffffffffffffffffffffffffffffffff1673ffffffffffffffffffffffffffffffffffffffff16815260200190815260200160002060009054906101000a900460ff16905092915050565b60007f01ffc9a7000000000000000000000000000000000000000000000000000000007bffffffffffffffffffffffffffffffffffffffffffffffffffffffff1916827bffffffffffffffffffffffffffffffffffffffffffffffffffffffff1916149050919050565b505050565b505050565b60008082905060005b84518110156129a7576000858281518110612964577f4e487b7100000000000000000000000000000000000000000000000000000000600052603260045260246000fd5b602002602001015190508083116129865761297f8382612bba565b9250612993565b6129908184612bba565b92505b50808061299f906140a6565b915050612920565b508091505092915050565b6001816000016000828254019250508190555050565b6129d28383612bd1565b6129df6000848484612a23565b612a1e576040517f08c379a0000000000000000000000000000000000000000000000000000000008152600401612a1590613a43565b60405180910390fd5b505050565b6000612a448473ffffffffffffffffffffffffffffffffffffffff16612dab565b15612bad578373ffffffffffffffffffffffffffffffffffffffff1663150b7a02612a6d611f43565b8786866040518563ffffffff1660e01b8152600401612a8f9493929190613976565b602060405180830381600087803b158015612aa957600080fd5b505af1925050508015612ada57506040513d601f19601f82011682018060405250810190612ad791906132bd565b60015b612b5d573d8060008114612b0a576040519150601f19603f3d011682016040523d82523d6000602084013e612b0f565b606091505b50600081511415612b55576040517f08c379a0000000000000000000000000000000000000000000000000000000008152600401612b4c90613a43565b60405180910390fd5b805181602001fd5b63150b7a0260e01b7bffffffffffffffffffffffffffffffffffffffffffffffffffffffff1916817bffffffffffffffffffffffffffffffffffffffffffffffffffffffff191614915050612bb2565b600190505b949350505050565b600082600052816020526040600020905092915050565b600073ffffffffffffffffffffffffffffffffffffffff168273ffffffffffffffffffffffffffffffffffffffff161415612c41576040517f08c379a0000000000000000000000000000000000000000000000000000000008152600401612c3890613bc3565b60405180910390fd5b612c4a81611ed7565b15612c8a576040517f08c379a0000000000000000000000000000000000000000000000000000000008152600401612c8190613aa3565b60405180910390fd5b612c966000838361290d565b6001600360008473ffffffffffffffffffffffffffffffffffffffff1673ffffffffffffffffffffffffffffffffffffffff1681526020019081526020016000206000828254612ce69190613e3d565b92505081905550816002600083815260200190815260200160002060006101000a81548173ffffffffffffffffffffffffffffffffffffffff021916908373ffffffffffffffffffffffffffffffffffffffff160217905550808273ffffffffffffffffffffffffffffffffffffffff16600073ffffffffffffffffffffffffffffffffffffffff167fddf252ad1be2c89b69c2b068fc378daa952ba7f163c4a11628f55a4df523b3ef60405160405180910390a4612da760008383612912565b5050565b6000808273ffffffffffffffffffffffffffffffffffffffff163b119050919050565b828054612dda90614043565b90600052602060002090601f016020900481019282612dfc5760008555612e43565b82601f10612e1557805160ff1916838001178555612e43565b82800160010185558215612e43579182015b82811115612e42578251825591602001919060010190612e27565b5b509050612e509190612e54565b5090565b5b80821115612e6d576000816000905550600101612e55565b5090565b6000612e84612e7f84613d83565b613d5e565b905082815260208101848484011115612e9c57600080fd5b612ea7848285614001565b509392505050565b6000612ec2612ebd84613db4565b613d5e565b905082815260208101848484011115612eda57600080fd5b612ee5848285614001565b509392505050565b600081359050612efc816147e4565b92915050565b60008083601f840112612f1457600080fd5b8235905067ffffffffffffffff811115612f2d57600080fd5b602083019150836020820283011115612f4557600080fd5b9250929050565b600081359050612f5b816147fb565b92915050565b600081519050612f70816147fb565b92915050565b600081359050612f8581614812565b92915050565b600081359050612f9a81614829565b92915050565b600081519050612faf81614829565b92915050565b600082601f830112612fc657600080fd5b8135612fd6848260208601612e71565b91505092915050565b600081359050612fee81614840565b92915050565b60008151905061300381614857565b92915050565b600082601f83011261301a57600080fd5b813561302a848260208601612eaf565b91505092915050565b6000813590506130428161486e565b92915050565b6000815190506130578161486e565b92915050565b60008135905061306c81614885565b92915050565b60006020828403121561308457600080fd5b600061309284828501612eed565b91505092915050565b600080604083850312156130ae57600080fd5b60006130bc85828601612eed565b92505060206130cd85828601612eed565b9150509250929050565b6000806000606084860312156130ec57600080fd5b60006130fa86828701612eed565b935050602061310b86828701612eed565b925050604061311c86828701613033565b9150509250925092565b6000806000806080858703121561313c57600080fd5b600061314a87828801612eed565b945050602061315b87828801612eed565b935050604061316c87828801613033565b925050606085013567ffffffffffffffff81111561318957600080fd5b61319587828801612fb5565b91505092959194509250565b600080604083850312156131b457600080fd5b60006131c285828601612eed565b92505060206131d385828601612f4c565b9150509250929050565b600080604083850312156131f057600080fd5b60006131fe85828601612eed565b925050602061320f85828601613033565b9150509250929050565b60006020828403121561322b57600080fd5b600061323984828501612f4c565b91505092915050565b60006020828403121561325457600080fd5b600061326284828501612f61565b91505092915050565b60006020828403121561327d57600080fd5b600061328b84828501612f76565b91505092915050565b6000602082840312156132a657600080fd5b60006132b484828501612f8b565b91505092915050565b6000602082840312156132cf57600080fd5b60006132dd84828501612fa0565b91505092915050565b6000602082840312156132f857600080fd5b600061330684828501612fdf565b91505092915050565b60006020828403121561332157600080fd5b600061332f84828501612ff4565b91505092915050565b60006020828403121561334a57600080fd5b600082013567ffffffffffffffff81111561336457600080fd5b61337084828501613009565b91505092915050565b60006020828403121561338b57600080fd5b600061339984828501613033565b91505092915050565b6000602082840312156133b457600080fd5b60006133c284828501613048565b91505092915050565b600080604083850312156133de57600080fd5b60006133ec85828601613033565b92505060206133fd85828601613033565b9150509250929050565b60008060006040848603121561341c57600080fd5b600061342a8682870161305d565b935050602084013567ffffffffffffffff81111561344757600080fd5b61345386828701612f02565b92509250509250925092565b61346881613f52565b82525050565b61347f61347a82613f52565b6140ef565b82525050565b61348e81613f64565b82525050565b61349d81613f70565b82525050565b60006134ae82613dfa565b6134b88185613e10565b93506134c8818560208601614010565b6134d181614200565b840191505092915050565b60006134e782613e05565b6134f18185613e21565b9350613501818560208601614010565b61350a81614200565b840191505092915050565b600061352082613e05565b61352a8185613e32565b935061353a818560208601614010565b80840191505092915050565b6000815461355381614043565b61355d8186613e32565b945060018216600081146135785760018114613589576135bc565b60ff198316865281860193506135bc565b61359285613de5565b60005b838110156135b457815481890152600182019150602081019050613595565b838801955050505b50505092915050565b60006135d2603283613e21565b91506135dd8261421e565b604082019050919050565b60006135f5602683613e21565b91506136008261426d565b604082019050919050565b6000613618602583613e21565b9150613623826142bc565b604082019050919050565b600061363b601c83613e21565b91506136468261430b565b602082019050919050565b600061365e602483613e21565b915061366982614334565b604082019050919050565b6000613681601983613e21565b915061368c82614383565b602082019050919050565b60006136a4602c83613e21565b91506136af826143ac565b604082019050919050565b60006136c7601e83613e21565b91506136d2826143fb565b602082019050919050565b60006136ea603883613e21565b91506136f582614424565b604082019050919050565b600061370d601183613e21565b915061371882614473565b602082019050919050565b6000613730602a83613e21565b915061373b8261449c565b604082019050919050565b6000613753602983613e21565b915061375e826144eb565b604082019050919050565b6000613776602083613e21565b91506137818261453a565b602082019050919050565b6000613799602b83613e21565b91506137a482614563565b604082019050919050565b60006137bc602c83613e21565b91506137c7826145b2565b604082019050919050565b60006137df602083613e21565b91506137ea82614601565b602082019050919050565b6000613802601883613e21565b915061380d8261462a565b602082019050919050565b6000613825602183613e21565b915061383082614653565b604082019050919050565b6000613848602383613e21565b9150613853826146a2565b604082019050919050565b600061386b603183613e21565b9150613876826146f1565b604082019050919050565b600061388e601a83613e21565b915061389982614740565b602082019050919050565b60006138b1601883613e21565b91506138bc82614769565b602082019050919050565b60006138d4601f83613e21565b91506138df82614792565b602082019050919050565b60006138f7601783613e21565b9150613902826147bb565b602082019050919050565b61391681613fea565b82525050565b6000613928828461346e565b60148201915081905092915050565b60006139438285613546565b915061394f8284613515565b91508190509392505050565b6000602082019050613970600083018461345f565b92915050565b600060808201905061398b600083018761345f565b613998602083018661345f565b6139a5604083018561390d565b81810360608301526139b781846134a3565b905095945050505050565b60006040820190506139d7600083018561345f565b6139e4602083018461390d565b9392505050565b6000602082019050613a006000830184613485565b92915050565b6000602082019050613a1b6000830184613494565b92915050565b60006020820190508181036000830152613a3b81846134dc565b905092915050565b60006020820190508181036000830152613a5c816135c5565b9050919050565b60006020820190508181036000830152613a7c816135e8565b9050919050565b60006020820190508181036000830152613a9c8161360b565b9050919050565b60006020820190508181036000830152613abc8161362e565b9050919050565b60006020820190508181036000830152613adc81613651565b9050919050565b60006020820190508181036000830152613afc81613674565b9050919050565b60006020820190508181036000830152613b1c81613697565b9050919050565b60006020820190508181036000830152613b3c816136ba565b9050919050565b60006020820190508181036000830152613b5c816136dd565b9050919050565b60006020820190508181036000830152613b7c81613700565b9050919050565b60006020820190508181036000830152613b9c81613723565b9050919050565b60006020820190508181036000830152613bbc81613746565b9050919050565b60006020820190508181036000830152613bdc81613769565b9050919050565b60006020820190508181036000830152613bfc8161378c565b9050919050565b60006020820190508181036000830152613c1c816137af565b9050919050565b60006020820190508181036000830152613c3c816137d2565b9050919050565b60006020820190508181036000830152613c5c816137f5565b9050919050565b60006020820190508181036000830152613c7c81613818565b9050919050565b60006020820190508181036000830152613c9c8161383b565b9050919050565b60006020820190508181036000830152613cbc8161385e565b9050919050565b60006020820190508181036000830152613cdc81613881565b9050919050565b60006020820190508181036000830152613cfc816138a4565b9050919050565b60006020820190508181036000830152613d1c816138c7565b9050919050565b60006020820190508181036000830152613d3c816138ea565b9050919050565b6000602082019050613d58600083018461390d565b92915050565b6000613d68613d79565b9050613d748282614075565b919050565b6000604051905090565b600067ffffffffffffffff821115613d9e57613d9d6141d1565b5b613da782614200565b9050602081019050919050565b600067ffffffffffffffff821115613dcf57613dce6141d1565b5b613dd882614200565b9050602081019050919050565b60008190508160005260206000209050919050565b600081519050919050565b600081519050919050565b600082825260208201905092915050565b600082825260208201905092915050565b600081905092915050565b6000613e4882613fea565b9150613e5383613fea565b9250827fffffffffffffffffffffffffffffffffffffffffffffffffffffffffffffffff03821115613e8857613e87614144565b5b828201905092915050565b6000613e9e82613fea565b9150613ea983613fea565b925082613eb957613eb8614173565b5b828204905092915050565b6000613ecf82613fea565b9150613eda83613fea565b9250817fffffffffffffffffffffffffffffffffffffffffffffffffffffffffffffffff0483118215151615613f1357613f12614144565b5b828202905092915050565b6000613f2982613fea565b9150613f3483613fea565b925082821015613f4757613f46614144565b5b828203905092915050565b6000613f5d82613fca565b9050919050565b60008115159050919050565b6000819050919050565b60007fffffffff0000000000000000000000000000000000000000000000000000000082169050919050565b6000613fb182613f52565b9050919050565b6000613fc382613f52565b9050919050565b600073ffffffffffffffffffffffffffffffffffffffff82169050919050565b6000819050919050565b600060ff82169050919050565b82818337600083830152505050565b60005b8381101561402e578082015181840152602081019050614013565b8381111561403d576000848401525b50505050565b6000600282049050600182168061405b57607f821691505b6020821081141561406f5761406e6141a2565b5b50919050565b61407e82614200565b810181811067ffffffffffffffff8211171561409d5761409c6141d1565b5b80604052505050565b60006140b182613fea565b91507fffffffffffffffffffffffffffffffffffffffffffffffffffffffffffffffff8214156140e4576140e3614144565b5b600182019050919050565b60006140fa82614101565b9050919050565b600061410c82614211565b9050919050565b600061411e82613fea565b915061412983613fea565b92508261413957614138614173565b5b828206905092915050565b7f4e487b7100000000000000000000000000000000000000000000000000000000600052601160045260246000fd5b7f4e487b7100000000000000000000000000000000000000000000000000000000600052601260045260246000fd5b7f4e487b7100000000000000000000000000000000000000000000000000000000600052602260045260246000fd5b7f4e487b7100000000000000000000000000000000000000000000000000000000600052604160045260246000fd5b6000601f19601f8301169050919050565b60008160601b9050919050565b7f4552433732313a207472616e7366657220746f206e6f6e20455243373231526560008201527f63656976657220696d706c656d656e7465720000000000000000000000000000602082015250565b7f4f776e61626c653a206e6577206f776e657220697320746865207a65726f206160008201527f6464726573730000000000000000000000000000000000000000000000000000602082015250565b7f4552433732313a207472616e736665722066726f6d20696e636f72726563742060008201527f6f776e6572000000000000000000000000000000000000000000000000000000602082015250565b7f4552433732313a20746f6b656e20616c7265616479206d696e74656400000000600082015250565b7f4552433732313a207472616e7366657220746f20746865207a65726f2061646460008201527f7265737300000000000000000000000000000000000000000000000000000000602082015250565b7f4552433732313a20617070726f766520746f2063616c6c657200000000000000600082015250565b7f4552433732313a206f70657261746f7220717565727920666f72206e6f6e657860008201527f697374656e7420746f6b656e0000000000000000000000000000000000000000602082015250565b7f4164647265737320646f6573206e6f7420657869737420696e206c6973740000600082015250565b7f4552433732313a20617070726f76652063616c6c6572206973206e6f74206f7760008201527f6e6572206e6f7220617070726f76656420666f7220616c6c0000000000000000602082015250565b7f4e6f6e6578697374656e7420746f6b656e000000000000000000000000000000600082015250565b7f4552433732313a2062616c616e636520717565727920666f7220746865207a6560008201527f726f206164647265737300000000000000000000000000000000000000000000602082015250565b7f4552433732313a206f776e657220717565727920666f72206e6f6e657869737460008201527f656e7420746f6b656e0000000000000000000000000000000000000000000000602082015250565b7f4552433732313a206d696e7420746f20746865207a65726f2061646472657373600082015250565b7f4d61782064617368657320746f206d696e7420696e20636f6d6d756e6974792060008201527f73616c652069732074656e000000000000000000000000000000000000000000602082015250565b7f4552433732313a20617070726f76656420717565727920666f72206e6f6e657860008201527f697374656e7420746f6b656e0000000000000000000000000000000000000000602082015250565b7f4f776e61626c653a2063616c6c6572206973206e6f7420746865206f776e6572600082015250565b7f4d61782064617368657320746f206d696e742069732031300000000000000000600082015250565b7f4552433732313a20617070726f76616c20746f2063757272656e74206f776e6560008201527f7200000000000000000000000000000000000000000000000000000000000000602082015250565b7f4e6f7420656e6f756768206461736865732072656d61696e696e6720746f206d60008201527f696e740000000000000000000000000000000000000000000000000000000000602082015250565b7f4552433732313a207472616e736665722063616c6c6572206973206e6f74206f60008201527f776e6572206e6f7220617070726f766564000000000000000000000000000000602082015250565b7f436f6d6d756e6974792073616c65206973206e6f74206f70656e000000000000600082015250565b7f496e636f7272656374204554482076616c75652073656e740000000000000000600082015250565b7f5265656e7472616e637947756172643a207265656e7472616e742063616c6c00600082015250565b7f5075626c69632073616c65206973206e6f74206f70656e000000000000000000600082015250565b6147ed81613f52565b81146147f857600080fd5b50565b61480481613f64565b811461480f57600080fd5b50565b61481b81613f70565b811461482657600080fd5b50565b61483281613f7a565b811461483d57600080fd5b50565b61484981613fa6565b811461485457600080fd5b50565b61486081613fb8565b811461486b57600080fd5b50565b61487781613fea565b811461488257600080fd5b50565b61488e81613ff4565b811461489957600080fd5b5056fea2646970667358221220a929e40fd7ca21b679a3c5322eac051795d456f423f3814d41f893884032b2ea64736f6c63430008020033",
  "linkReferences": {},
  "deployedLinkReferences": {}
}